:100000000C9463000C948B000C948B000C948B006C
:100010000C948B000C948B000C948B000C94B30309
:100020000C948B000C948B000C948B000C948B0024
:100030000C948B000C948B000C948B000C948B0014
:100040000C9469030C948B000C948B000C948B0023
:100050000C948B000C948B000C948B000C948B00F4
:100060000C948B000C948B000200000000230026EF
:10007000002900000000080002010000030407003E
:100080000000000000000000000000250028002BF8
:100090000000000000240027002A000404040404D7
:1000A0000404040202020202020303030303030125
:1000B00002040810204080010204081020010204FC
:1000C00008102000690611241FBECFEFD8E0DEBF64
:1000D000CDBF11E0A0E0B1E0ECE2FFE002C005908E
:1000E0000D92A237B107D9F721E0A2E7B1E001C034
:1000F0001D92A83AB207E1F710E0C3E6D0E004C0D1
:100100002197FE010E948E07C236D107C9F70E94CF
:1001100035040C9494070C94000090E0FC01E15528
:10012000FF4F249185569F4FFC018491882399F0BD
:1001300090E0880F991FFC01EF56FF4FA591B491F5
:10014000FC01E957FF4F859194918FB7F894EC919A
:10015000E22BEC938FBF0895833081F028F4813037
:1001600099F08230A9F008958730A9F08830C9F05D
:100170008430B1F4809180008F7D03C08091800035
:100180008F7780938000089584B58F7784BD08951C
:1001900084B58F7DFBCF8091B0008F778093B000C6
:1001A00008958091B0008F7DF9CF1F93CF93DF9397
:1001B000282F30E0F901ED58FF4F8491F901E15506
:1001C000FF4FD491F901E556FF4FC491CC23A9F01C
:1001D000162F81110E94AC00EC2FF0E0EE0FFF1FF4
:1001E000E957FF4FA591B4918FB7F894EC91111195
:1001F00008C0D095DE23DC938FBFDF91CF911F9194
:100200000895DE2BF8CF3FB7F89480918C01909140
:100210008D01A0918E01B0918F0126B5A89B05C0DC
:100220002F3F19F00196A11DB11D3FBFBA2FA92F75
:10023000982F8827BC01CD01620F711D811D911D72
:1002400042E0660F771F881F991F4A95D1F70895DE
:100250008F929F92AF92BF92CF92DF92EF92FF92D6
:100260006B017C010E9403014B015C01C114D104AC
:10027000E104F104B9F00E940301681979098A09BF
:100280009B09683E73408105910580F321E0C21A05
:10029000D108E108F10888EE880E83E0981EA11CC1
:1002A000B11CE4CFFF90EF90DF90CF90BF90AF9064
:1002B0009F908F900895AF92BF92CF92DF92EF926E
:1002C000FF920F931F93CF93DF936C017B018B0100
:1002D000040F151FEB015E01AE18BF08C017D10750
:1002E00059F06991D601ED91FC910190F081E02DDA
:1002F000C6010995892B79F7C501DF91CF911F912F
:100300000F91FF90EF90DF90CF90BF90AF90089546
:10031000089590E080E008958F929F92AF92BF92EF
:100320000F931F93CF93DF93CDB7DEB7A1970FB68F
:10033000F894DEBF0FBECDBF19A2423008F44AE0E8
:100340008E010F5D1F4F842E912CB12CA12CA50185
:1003500094010E945D07E62FB901CA01EA3044F515
:10036000E05DD801EE938D01232B242B252B79F70B
:1003700090E080E0109769F0FD0101900020E9F71E
:100380003197AF014A1B5B0BBD0180E991E00E94F0
:100390005B01A1960FB6F894DEBF0FBECDBFDF9113
:1003A000CF911F910F91BF90AF909F908F90089524
:1003B000E95CD7CFFC0101900020E9F73197AF014C
:1003C000481B590BBC0180E991E00C945B01CF9371
:1003D000DF93EC0160E08E810E94D50061E08E81A8
:1003E0000E94D50060E08E810E94D5008BE891E0EC
:1003F0000197F1F7DF91CF910895CF92DF92EF92BD
:10040000FF920F931F93CF93DF936C017C0187E0E2
:10041000E80EF11CD0E0C0E0062F10E0B8010C2E71
:1004200002C0759567950A94E2F76170F7018191B2
:100430007F010E94D5002196C430D10579F7C6010D
:10044000DF91CF911F910F91FF90EF90DF90CF90B0
:100450000C94E701CF92DF92EF92FF920F931F93DC
:10046000CF93DF93EC01F62E642F8C810E94D50090
:100470008D818F3F19F060E00E94D5000F2D10E0B4
:100480008F8584FF25C06E0187E0C80ED11CF12C3A
:10049000E12CB8010E2C02C0759567950A94E2F71D
:1004A0006170F60181916F010E94D500FFEFEF1A94
:1004B000FF0A88E0E816F10461F7CE01DF91CF91E1
:1004C0001F910F91FF90EF90DF90CF900C94E70178
:1004D000B80184E0759567958A95E1F7CE010E9491
:1004E000FD016F2DCE01DF91CF911F910F91FF90F4
:1004F000EF90DF90CF900C94FD0140E0682F80E9F1
:1005000091E00C942A0281E00E947D028BE39FE13E
:100510000197F1F70895CF93DF93823029F49091FA
:100520009F01986090939F018093A3011092A40172
:1005300080E48093A50180E18093A60180E580930B
:10054000A701809194010E948D00809195018F3FB9
:1005500011F00E948D00809196010E948D00C0E9EB
:10056000D1E09E012059314080919F0184FD0AC055
:1005700084E090E02196281739073CF48E810E9490
:100580008D00EFCF88E090E0F5CF8BE39DE0019701
:10059000F1F760E0809194010E94D50060E08091C5
:1005A00096010E94D500809195018F3F19F060E07F
:1005B0000E94D50080919F0184FD34C063E080E9F2
:1005C00091E00E94FD01CBE4D6E4CE010197F1F762
:1005D00063E080E991E00E94FD012197F1F763E07B
:1005E00080E991E00E94FD0183E592E00197F1F737
:1005F00062E080E991E00E94FD0180919F018062AC
:100600000E947D0284E08093A0018CE00E947D0224
:100610000E94830282E08093A10186E0DF91CF9166
:100620000C947D0280620E947D028BE496E4019727
:10063000F1F780919F0180620E947D0283E592E044
:100640000197F1F780919F0180620E947D02D5CFD2
:10065000643008F063E09091A301691710F06FEF28
:10066000690FE62FF0E0E057FE4F9489890F80680C
:100670000C947D0241E00E942A0281E090E00895FE
:10068000CF92DF92EF92FF926C01990FEE08FF0874
:10069000F7FE16C041E06DE280E991E00E942A0277
:1006A00066277727CB016C197D098E099F094AE0DF
:1006B0000E948C010196FF90EF90DF90CF900895FB
:1006C0004AE0C701B601FF90EF90DF90CF900C9405
:1006D0008C011F920F920FB60F9211242F933F930C
:1006E0008F939F93AF93BF938091880190918901DD
:1006F000A0918A01B0918B013091870123E0230FF3
:100700002D3758F50196A11DB11D209387018093C7
:10071000880190938901A0938A01B0938B01809105
:100720008C0190918D01A0918E01B0918F01019665
:10073000A11DB11D80938C0190938D01A0938E011A
:10074000B0938F01BF91AF919F918F913F912F9166
:100750000F900FBE0F901F90189526E8230F02965A
:10076000A11DB11DD2CF1F920F920FB60F9211246F
:100770002F933F934F935F936F937F938F939F93A9
:10078000AF93BF93EF93FF9380917701909178019E
:10079000A0917901B0917A01892B8A2B8B2BD1F111
:1007A00090917201E0917301F09174018081892729
:1007B00080838091770190917801A0917901B09127
:1007C0007A01181619061A061B069CF48091770107
:1007D00090917801A0917901B0917A010197A109D6
:1007E000B1098093770190937801A0937901B09338
:1007F0007A01FF91EF91BF91AF919F918F917F917E
:100800006F915F914F913F912F910F900FBE0F907D
:100810001F90189580914001E8E6F0E0E4919FEF89
:1008200090934001E13051F030F0E23069F060E047
:100830000E94D500DECF10926E00F9CF90916F002C
:100840009D7F90936F00F3CF909170009D7F909368
:10085000700091E09093B0009091B100987F946007
:100860009093B1001092B300E2CF789484B5826087
:1008700084BD84B5816084BD85B5826085BD85B544
:10088000816085BD80916E00816080936E001092C2
:10089000810080918100826080938100809181003D
:1008A00081608093810080918000816080938000CE
:1008B0008091B10084608093B1008091B00081602C
:1008C0008093B00080917A00846080937A00809158
:1008D0007A00826080937A0080917A0081608093B0
:1008E0007A0080917A00806880937A001092C1002B
:1008F00082E00E948B0200E011E0C0E08C2F806457
:100900000E947D02780188E0E80EF11CF8016191F7
:100910008F0180E991E00E943A03E016F106B1F7F9
:10092000C85FC03459F744EA242E40E0342E57EC17
:10093000452E512C612C712C68EC862E912CA12C0B
:10094000B12C08EB10E080914001893021F5E8E6F8
:10095000F0E0C491C7FDBDC089E00E948D00CC23AA
:1009600009F487C0C23009F098C08091B100876057
:100970008093B1008DE48093B300809277019092D0
:100980007801A0927901B0927A0180917000826022
:10099000809370009EC08F3F09F09BC089E08093D8
:1009A0004001E8E6F0E0C491CF3F09F492C0C130C5
:1009B00011F148F0C23009F43BC0C7FD8AC089E09C
:1009C0000E948D00CFCF14BC15BC84B5826084BD5D
:1009D00085B5816085BDF1018491E82FF0E0EE0FCF
:1009E000FF1FE957FF4F85919491F80184918093FF
:1009F0007601C0E0B1CF109280001092810080910A
:100A00008100886080938100809181008160809363
:100A10008100F1018491E82FF0E0EE0FFF1FE9570C
:100A2000FF4F85919491F80184918093750194CF43
:100A30001092B0001092B1008091B000826080935B
:100A4000B0008091B10081608093B100F101849188
:100A5000E82FF0E0EE0FFF1FE957FF4F85919491CB
:100A60009093740180937301F801849180937201D3
:100A700073CF85B5887F856085BD8DE487BD809205
:100A80007F0190928001A0928101B09282018091B9
:100A90006E00826080936E001CC0C13009F0CEC031
:100AA00080918100887F83608093810081EE94E053
:100AB000909389008093880080927B0190927C01C2
:100AC000A0927D01B0927E0180916F008260809340
:100AD0006F0060E087E00E94280385E591E00E94B6
:100AE000DA0160E080E00E94280380918501909106
:100AF00086010E944003C0914301D091440161E00E
:100B00008C2F0E94280363E080E991E00E943A0361
:100B1000C0904101D09042010D2C000CEE08FF085E
:100B2000C701B6010E94280161E08C2F0E942803B2
:100B300064E080E991E00E943A03C701B6010E9497
:100B4000280161E08C2F0E94280365E080E991E094
:100B50000E943A03C701B6010E9428010E94830245
:100B600061E083E00E94280361E083E00E942803A3
:100B700061E080E991E00E943A03E6E7F0E08491C9
:100B8000E2EBF0E0F490EEE9F0E0E490EE2009F41E
:100B90005DC081110E94AC00EE2DF0E0EE0FFF1F52
:100BA000E759FF4FA591B4918C91F82209F44EC0FA
:100BB00061E083E00E94280360E080E991E00E9408
:100BC0003A0360E083E00E94280362E080E991E05C
:100BD0000E943A03809143019091440101971816B5
:100BE00019060CF073C090934401809343010E9456
:100BF000D306A30192010E942B076F5F7F4F8F4F97
:100C00009F4F709342016093410180914301909105
:100C10004401039759F40E948302809185019091C9
:100C2000860101969093860180938501E0E0F0E0D3
:100C3000EF2B09F488CE0E94000083CEC23021F051
:100C4000C11147CF81EE1ACF81EE95CE239711F6D1
:100C50000E94830260E083E00E9428038FE591E018
:100C60000E94DA0161E087E00E94280366E080E9E3
:100C700091E00E943A0368EB7BE080E090E00E9404
:100C80002801809185019091860190938401809341
:100C9000830161E083E00E94280389E691E00E94DD
:100CA000DA0161E08CE00E94280380918301909139
:100CB00084010E94400360E777E180E090E00E94B9
:100CC0002801109286011092850184CF8FE090E078
:100CD0008ACFE0E9F1E0138212828DE491E0918302
:100CE00080838AE084838FEF858388E0868387E032
:100CF000878386E0808785E0818784E0828713860A
:100D0000148615861686178681E00C948B028F92C6
:100D10009F92AF92BF92CF92DF92EF92FF92CF93CA
:100D2000DF93EC01688179818A819B81611571056E
:100D30008105910521F464E279ED8BE597E02DE1E1
:100D400033EF41E050E00E942B0749015A019B011B
:100D5000AC01A7EAB1E40E944A076B017C01ACEE4A
:100D6000B4EFA50194010E945807C60ED71EE81ED5
:100D7000F91EF7FE06C081E0C81AD108E10880E834
:100D8000F80AC882D982EA82FB82C701B6019F773E
:100D9000DF91CF91FF90EF90DF90CF90BF90AF9019
:100DA0009F908F9008958F929F92AF92BF92CF9213
:100DB000DF92EF92FF926091450170914601809120
:100DC000470190914801611571058105910521F454
:100DD00064E279ED8BE597E02DE133EF41E050E0FF
:100DE0000E942B0749015A019B01AC01A7EAB1E41B
:100DF0000E944A076B017C01ACEEB4EFA50194019F
:100E00000E945807C60ED71EE81EF91EF7FE06C040
:100E100081E0C81AD108E10880E8F80AC0924501CB
:100E2000D0924601E0924701F0924801C701B60115
:100E30009F77FF90EF90DF90CF90BF90AF909F9003
:100E40008F90089560934501709346018093470108
:100E5000909348010895052E97FB1EF400940E947C
:100E6000420757FD07D00E945D0707FC03D04EF4F0
:100E70000C94420750954095309521953F4F4F4F28
:100E80005F4F089590958095709561957F4F8F4F36
:100E90009F4F08950E947F07A59F900DB49F900DCE
:100EA000A49F800D911D11240895B7FF0C944A074B
:100EB0000E944A07821B930B0895A1E21A2EAA1BD7
:100EC000BB1BFD010DC0AA1FBB1FEE1FFF1FA217FA
:100ED000B307E407F50720F0A21BB30BE40BF50BF7
:100EE000661F771F881F991F1A9469F76095709580
:100EF000809590959B01AC01BD01CF010895A29F03
:100F0000B001B39FC001A39F700D811D1124911DDD
:100F1000B29F700D811D1124911D0895EE0FFF1FCA
:0C0F20000590F491E02D0994F894FFCFA7
:100F2C000E041F0E0A0A1F0A0E041F0E1B001F1FA1
:100F3C000E151F0E0A0A1F0A000000000000000018
:100F4C000000001F1F1F1F1F001F1F1F1F1F1F1F21
:100F5C000E1F1F1F1F1F1F1F00000000000000009E
:100F6C00FF64000F0001000000000000003A035B6A
:100F7C00018901880153414C5441204F4253004791
:100F8C00616D65204F7665720050756E74616A658F
:020F9C003A0019
:00000001FF
